S0180000476363426F61726450726F6A656374312E737265630F
S1130000D0230020E91C0000E51C0000E51C0000D2
S113001000000000000000000000000000000000DC
S1130020000000000000000000000000E51C0000CB
S11300300000000000000000E51C0000E51C0000BA
S1130040E51C0000E51C0000E51C0000E51C0000A8
S1130050E51C0000E51C0000E51C0000E51C000098
S1130060E51C000099130000A9130000B913000057
S1130070D11D0000C9130000D9130000E51C0000C5
S1130080E51C0000E51C0000E51C0000E51C000068
S1130090E51C0000E51C0000E51C0000E51C000058
S11300A0E51C0000E51C0000E51C0000E51C000048
S11300B00000000010B5064C2378002B07D1054B37
S11300C0002B02D0044800E000BF0123237010BDC0
S11300D0100000200000000074240000084B10B53C
S11300E0002B03D00749084800E000BF0748036815
S11300F0002B00D110BD064B002BFBD09847F9E72D
S11301000000000014000020742400007424000087
S11301100000000010B5490840230024814202D2A7
S1130120180010BD1C00091A631C9BB28842F9D93F
S11301304023FF2CF4D814800023F1E710B582B0DB
S113014004000E4B1B78002B07D0002905D10B4B64
S11301505B78834210D01D200CE001A90C701320A1
S1130160074B98471320074B9847044B5C700122B8
S11301701A70002002B010BD0020FBE72C00002004
S11301808D1B0000011B0000404B984231D00AD95E
S11301903F4B98424DD03F4B98425AD03E4B9842E9
S11301A037D0002070473D4B98420CD03C4B9842CE
S11301B0F7D1012917D000295DD0022915D00329D0
S11301C015D00020EEE7012907D0002951D00229DB
S11301D005D0032905D00020E4E73248E2E732489D
S11301E0E0E73248DEE73248DCE73248DAE7324813
S11301F0D8E7012907D000293FD0022905D00329D7
S113020005D00020CEE72D48CCE72D48CAE72D487D
S1130210C8E7012907D0002931D0022905D00329D4
S113022005D00020BEE72848BCE72848BAE728489C
S1130230B8E7012907D0002923D0022905D00329D2
S113024005D00020AEE72348ACE72348AAE72348BB
S1130250A8E7012907D0002915D0022905D00329D0
S113026005D000209EE71E489CE71E489AE71E48DA
S113027098E71E4896E7032094E71D4892E71D4837
S113028090E71D488EE71D488CE7C04600100042E9
S113029000180042001C0042001400420008004202
S11302A0000C0042030005000300060003000700E1
S11302B00300010003001E0003001F0003000900E7
S11302C003000A0003000B000300110003001200E6
S11302D00300130003000D0003000E0003000F00D1
S11302E003001700030018000300190003000400B2
S11302F0030008000300100003000C0003001600B4
S113030030B587B00B4B6A4632CB32C232CB32C2E5
S1130310009B83420BD001239A00694652588242C3
S113032006D00133062BF7D1002007B030BD0023DF
S1130330D8B2FAE7D423000070B580225201254BCD
S11303401A60254C23680225AB43236023681C22D2
S11303509343183A134323602368204A13402360CD
S113036023681F4A1A4080235B03134323602368D6
S11303701C4A134023606368072293436360226826
S11303808023DB05134323602368174A134023604B
S11303906368402293436360144B1A680001101A87
S11303A0010C00040023124EB04780B2A0816268A1
S11303B080239B0213436360626880235B021343C0
S11303C06360A37D04221343A37523681D43256042
S11303D070BDC04600E100E000140042FFFFFFEFE3
S11303E0FFFFCFFFFFFFFCFFFFFFFFF00000002037
S11303F06921000010B50D4B1B7EDB0700D410BD36
S11304000029FCD004000139C9B201314018074A5F
S1130410138D21785B0A5B020B431385137E9B07C4
S1130420FCD501348442F3D1E9E7C046001400420C
S113043030B583B0062201AB1A800D4C053A0D4944
S113044020000D4B9847216801220B7E1342FCD0FB
S1130450074D0A4C012201A92800A0470028F9D120
S1130460002204490248044B984703B030BDC046FB
S11304708C030020C8030020E90D0000DD0E0000FD
S1130480F0B583B007000D4E0D4C01223100200061
S11304900C4DA84701A905230B80012220000A4B1B
S11304A09847FF23022239002000084FB847002252
S11304B031002000A84703B0F0BDC046C8030020A7
S11304C08C030020E90D0000DD0E0000CD0C0000BF
S11304D0F0B5D6464F464646C0B586B081460E00B6
S11304E0924602220E2302A98C4663441A80B94B19
S11304F09847B94C2000B94B9847237803221340FE
S1130500022B08D0B44CB54F03252000B8472378FC
S11305102B40022BF9D10D2002AB9C466044FF23F3
S11305200370002305AA13700A22624413804B4609
S11305306946CB71CB796146CB7107314B461B0AB7
S1130540DBB204AC23704B461B0CDBB209246444BD
S113055023700378097801335B1A9BB2138001225C
S11305609F49A048A04B98479E4CA04D01220E23C2
S113057002A98C46634419002000A8470028F5D13D
S1130580984C9A4D0122092302A98C466344190010
S11305902000A8470028F5D1924C944D012204A9CB
S11305A02000A8470028F9D18E4C904D012202ABBF
S11305B0D91D2000A8470028F8D10A2302AA94468E
S11305C063441B889BB2534532D303AB00221A7099
S11305D01B78DBB29A4511D903AC824D834F217845
S11305E0711801222800B8470028F8D12378013374
S11305F0DBB223702378DBB29A45F0D80022784925
S11306007848794B9847744C2000744B984723786A
S1130610DB0707D5704C714E01252000B0472378C5
S11306202B42FAD106B01CBC90469946A246F0BDB6
S113063002AB00225A715A790A2302A98C466344F8
S11306401B889BB29A4217D202AB5C1D654D674F63
S11306502178711801222800B8470028F8D123789E
S11306600133DBB2237022780A2302A98C46634447
S11306701B889BB29A42EBD30022594959485A4BE2
S11306809847554C2000554B98472378DB0708D5ED
S1130690514C524B984601252000C04723782B42E9
S11306A0FAD14C4B98474C4C20004C4B984723783C
S11306B003221340022B09D0474C484B984603258C
S11306C02000C04723782B40022BF9D10A2302AA29
S11306D0944663441B884B44D9B2D1711A0AD2B2EE
S11306E004A90A701B0CDBB20922624413700122B4
S11306F03B493C483C4B98473A4C3C4D01220E2325
S113070002A98C46634419002000A8470028F5D1AB
S1130710344C364D0122092302A98C466344190046
S11307202000A8470028F5D12E4C304D012204A901
S11307302000A8470028F9D12A4C2C4D012202ABF5
S1130740D91D2000A8470028F8D10A2302AA9446FC
S113075063441B885246D71AFFB205AA1770634632
S11307600021997106331B781278DBB293421AD2B6
S113077002AB9C1D1B4D1D4F23780A2202A98C46F7
S113078062441188C918711801222800B84700284A
S1130790F2D123780133DBB22370237805AA1278CF
S11307A0DBB29342E8D300220D490E480E4B984722
S11307B0094C2000094B98472378DB0700D431E724
S11307C0054C064E01252000B04723782B42FAD170
S11307D028E7C046310400006C01002081040000B9
S11307E0C80300208C030020E90D0000DD0E00008A
S11307F070B582B001AB01221A8000225A80174BD7
S11308009847174C2000174B98472378032213402E
S1130810022B08D0124C134E03252000B047237836
S11308202B40022BF9D1104C012210492000104B0F
S11308309847216801220B7E1342FCD00A4D0D4CCF
S1130840022201A92800A0470028F9D10022074963
S11308500548074B984702B070BDC04631040000FC
S11308606C010020810400008C030020C8030020D8
S1130870E90D0000DD0E0000F0B5D6464F4680B508
S113088085B00F006B46D871314B9847314C20002E
S1130890314B9847237803221340022B08D02D4C68
S11308A02D4E03252000B04723782B40022BF9D18D
S11308B0FBB20D266E4433703B0ADBB20E226A444F
S11308C0914613703F0CFFB20F236B449A461F707E
S11308D0224C012222492000224FB84701226B46B4
S11308E0D91D2000204DA847012251462000A847C9
S11308F0012249462000A847012231002000A847D0
S1130900002217492000B847124C2000124B984788
S113091023789B0607D50F4C0F4E20252000B047A7
S113092023782B42FAD10B4C20000B4B98472378A9
S1130930DB0707D5074C084E01252000B047237874
S11309402B42FAD105B00CBC91469A46F0BDC04684
S1130950310400006C010020810400008C0300209D
S1130960C8030020E90D0000DD0E0000F0B585B0DD
S113097015001E00CAB20D236B441A700B0ADBB2B9
S11309800E226A441370090CC9B20F236B44197008
S1130990434B1A6801929A8801AB9A80FF226B46F6
S11309A0DA701B281BD00B283ED003285DD0002D05
S11309B00ED03400013DEDB201357519394F3A4E70
S11309C0FF23012221003800B0470134AC42F7D1A3
S11309D0002236493348364B984705B0F0BD314CB8
S11309E0FE3A32492000324B9847012201A92000E7
S11309F0304FB84701220F2169442000B847012233
S1130A000E2169442000B84701220D2169442000C9
S1130A10B84701226B46D91C2000B84701226B4617
S1130A20D91C2000B847C2E71E4C01221F492000F0
S1130A301F4B984701226B46991D20001D4FB84754
S1130A4001220F2169442000B84701220E21694484
S1130A502000B84701220D2169442000B847012233
S1130A606B46D91C2000B847A1E70E4C01220F4960
S1130A7020000F4B9847012202A920000D4FB847D0
S1130A8001220F2169442000B84701220E21694444
S1130A902000B84701220D2169442000B84786E7A9
S1130AA0EC2300008C030020CD0C0000C8030020C0
S1130AB0E90D0000DD0E0000F0B58BB005000C0060
S1130AC0160029600B681C209B0701D50BB0F0BDF4
S1130AD00B681738DB07F9D408006F4B98476F4A47
S1130AE0116A871C0123BB400B43136209A9242705
S1130AF0F35D0B701430C3B201931800684B984730
S1130B000198684B9847F05D0021674B984733780C
S1130B10012B3FD03378002B03D1236808221343E1
S1130B2023602B000C3329002831002204C38B429C
S1130B30FCD10023EB62AB620024AB862B863633F8
S1130B40EC540133EC540133EC54353B6B722C718F
S1130B502868514B984707005449554B9847BF00A4
S1130B60544BFD502F6804AB80221A705C707F3A9E
S1130B709A70DC703378002B02D1002204AB9A7097
S1130B80B36A0593F36A0693336B0793736B089305
S1130B9000240BE023680C2213432360BAE73800D7
S1130BA0454B98470AE00134042C10D0E1B2A3006D
S1130BB002AA0C201218D0580028F0D0431CF2D0FE
S1130BC004A90870000CC0B23C4B9847EBE733789B
S1130BD06B71337CAB71B37CEB71337D2B72002270
S1130BE002ABDA803378012B12D03378002B26D174
S1130BF0B069B28B7B6AF17F0904B47F2143194346
S1130C0079622023F35C002B1BD040231A4318E0A5
S1130C102868214B98471430C0B2294B98470100EB
S1130C2002AB9A1DB069274B984703001720002B8D
S1130C3000D04BE702AB06331B783B73D5E70022A9
S1130C4000207368B1680B43F1680B430343317CA4
S1130C500A43717C002903D11B498978890701D58E
S1130C6080210B43B17C002902D0802189020A43F0
S1130C70F17C002902D0802189000A43317D0029BA
S1130C8002D0802189010A4339680B433B607B68A9
S1130C901A437A60002019E70103000000040040B1
S1130CA08D1B0000011B00003D0100000511000028
S1130CB02D1300007402002089010000851C00002F
S1130CC0A91B00001501000000200041F0B5D64624
S1130CD04F4680B583B08C463825465D333D052E9E
S1130CE075D01235002A72D0C4790535002C6ED027
S1130CF04479002C03D10468257EA9070AD4013A5B
S1130D0094B200260422022189460127DB05DB0D6B
S1130D109A4637E002252576F1E701680B7E3B42CF
S1130D20FCD00B7E3B4209D053468B622DE00B7EF8
S1130D304D462B4238D10B7E134245D001680B7EC1
S1130D401342FCD00B7E134240D04B8B00250195FF
S1130D50134202D04A831E2301938379012B27D0A7
S1130D608B6ADBB20199002937D1751CADB261469B
S1130D708B55817901291FD02E00013CA4B2184B58
S1130D809C421FD04379012BC7D04379002BD5D186
S1130D9001680B7E1342CAD1124B0D7E1542C6D197
S1130DA0013B002BF9D1C2E702230B7604250EE0A8
S1130DB08B6ADB05DB0DD5E70236B6B21B0A61464A
S1130DC04B55DAE7019D02E0122500E010252800CA
S1130DD003B00CBC91469A46F0BD019DF7E7C046AE
S1130DE0FFFF00001027000010B544791523012CE3
S1130DF001D0180010BD047A0023002CF9D1002A78
S1130E0058D04B78002B44D003681B7EDB0710D4EA
S1130E100A78D1090023002904D15309DB012E49A2
S1130E208C4663441F21114001228A409A610523A4
S1130E30DFE70A78D4090023002C04D15309DB012D
S1130E40254CA44663441F2414400122A2405A6145
S1130E5003681A7ED20701D58A789A62C279002380
S1130E60002AC6D102680421137E0B42FCD0117EF5
S1130E7000234907BDD5538B5B0701D50423538356
S1130E808379012B02D0936A0023B2E7936A00238B
S1130E90AFE70A78D1090023002904D15309DB0103
S1130EA00D498C4663441F21114001228A405A6136
S1130EB000239EE70A78D1090023002904D15309AD
S1130EC0DB0105498C4663441F21114001228A40FD
S1130ED09A6100238DE7C04600440041F0B5DE4628
S1130EE057464E464546E0B583B03823C45C333B91
S1130EF0052C02D01233002A07D1180003B03CBCE1
S1130F0090469946A246AB46F0BD4379002B03D1E7
S1130F1003681C7EA4070AD49346002401230225F7
S1130F20AC460235A846013A92B28A4623E002242E
S1130F301C76F1E7357E61460D422ED1357E1D4289
S1130F4000D1C2E00668357E1D42FCD0671CBFB2EA
S1130F5051460D5D8179012923D0ADB23C00377E25
S1130F601F4202D0ED05ED0DB562551EADB2C67936
S1130F70002E1DD12A005A4DAA4270D04579002D69
S1130F80E0D10668357E1D42D4D1564D377E1F42CE
S1130F90D0D1013D002DF9D1CCE7022333760233C1
S1130FA0ABE70234A4B25146CF5D3F023D43D6E7DE
S1130FB051464579002D37D14B4D019112E0023451
S1130FC0A4B24946019F795C0902009F0F431BE0CC
S1130FD0013A92B20668377E41460F421BD1013D69
S1130FE0002D18D0002AF5D00668377E1F42F1D0B4
S1130FF0671CB9B289460199095D0091817901297B
S1131000DDD069460F884C46317E1942E0D0FF0599
S1131010FF0DB762DCE70199357E67463D4218D182
S1131020357E4646354252D00668357E47463D42B7
S1131030FBD0357E3D4207D0758B3D4200D077838F
S11310408579012D09D0B56A5D46013DADB2AB4647
S113105069E70223337602334FE7B56AF4E743794D
S1131060012B0BD0002B34D1C279002A00D144E7E4
S113107004245B465D46002B19D13EE70168022239
S11310800B7E1342FCD0002337E70B7E234222D091
S11310900B7E234207D04B8B234200D04C838379B1
S11310A0012B10D08B6A013DADB2002D15D0016823
S11310B00B7E2342E9D10B4B0A7E2242E5D1013B50
S11310C0002BF9D1E1E78B6AEDE7122315E7122330
S11310D013E7002311E712230FE700230DE7C046AF
S11310E0FFFF00001027000011270000931C9B0045
S11310F0C31859603621012393401A00435C1343FB
S113110043547047F8B58000854BC458266837238C
S1131110E35C3622A75C1F40337EB57D1D40EB07A0
S11311202ED56379012B25D0002B29D1637A002B8E
S113113026D02168E26A1378DBB2501CE062A07901
S1131140012800D169E09BB2DB05DB0D8B62A38E25
S1131150013B9BB2A386A38E9BB2002B10D101331B
S11311603375637A012B0BD1E379002B08D1023359
S1131170B37505E0637A002B3ED0637A002BD8D197
S11311806B0711D5738B5B0751D5637A012B08D09C
S11311901E223823E254353B6372023333753B0716
S11311A041D4B36A04237383AB0715D56379002B49
S11311B00ED107333375053B337601336372002355
S11311C0A386238638330022E254FB0600D57FE051
S11311D06379012B00D17FE02B0708D56379002BBD
S11311E005D1083333753376BB0600D58AE06DB27A
S11311F0002D00DA8AE0F8BD4A4B1B88B362638E87
S1131200013B9BB26386638E9BB2002B01D10133F9
S113121033756379012BB0D086E75078000203431D
S11312200232E26290E72000A3699847B9E7637A43
S1131230012B27D023689B6ADB05DB0DDAB2A16A98
S11312400A70A26A511CA162A179012933D0238EAC
S1131250013B9BB22386238E9BB2002BA4D1002298
S11312603833E254343B3375637A022B29D0637AE2
S1131270002B00D098E7BB0700D495E72000236932
S1131280984791E723689B6A638E013B9BB2638610
S1131290638E9BB2002B00D086E7043333750022A3
S11312A03433E254353B6372FB0700D47CE72000FF
S11312B0E368984778E71B0A5370A36A0133A36273
S11312C0C5E77B0700D46FE72000636998476BE7A5
S11312D02000E36998477BE7637A012B00D086E717
S11312E0E379002B00D082E7023333750133637254
S11312F000223533E254FB0700D46DE72000E36895
S1131300984769E72000236A984770E7802333757C
S113131033767B0600D46EE7636A200098476AE759
S1131320740200207002002070470000F0B50A4BE0
S11313301B78002B0CD1094F094E0A4D0024DE51B5
S11313405A1914600433182BF9D10122024B1A7074
S11313508000024BC150F0BD2E0000203000002060
S1131360291300007402002000B583B009236A46E3
S1131370137001335370013393700133D37001330D
S1131380137101335371034B98476B46185603B0DE
S113139000BDC0460103000010B5024B1B680020CD
S11313A0984710BD3000002010B5024B5B68012047
S11313B0984710BD3000002010B5024B9B680220F6
S11313C0984710BD3000002010B5024B1B69042063
S11313D0984710BD3000002010B5024B5B69052012
S11313E0984710BD3000002070B50020084B984786
S11313F00500084CFA218900A047074B18600749EB
S11314002800A047064B18600522064B1A6070BDE1
S1131410751A0000512000000400002040420F0013
S11314200800002010E000E030B5084B1C68084AB2
S1131430002580214902013807D3002CFBD05460D9
S1131440956013680B42FCD0F5E730BD0400002022
S113145010E000E00C4B1B68002B06D1EFF3108367
S1131460002B07D00022094B1A70074A1368013376
S11314701360704772B6BFF35F8F0022044B1A707B
S11314800132024B1A70F0E7480000204C000020A3
S11314900C000020084B1A68013A1A601B68002BE4
S11314A009D1064B1B78002B05D00122044B1A707E
S11314B0BFF35F8F62B67047480000204C000020E5
S11314C00C000020F0B583B001AC01256570002745
S11314D0A770257021003E20064EB0478022D20519
S11314E0054B9A612770657021000F20B04703B047
S11314F0F0BDC046FD1400008044004100B583B037
S113150001AB80221A700A785A704A789A708A78E5
S1131510DA701900014B984703B000BD851C000028
S113152010B5082803D880001C4B1B589F46002088
S113153032E01B4B18692FE01A4B1B6A9B059B0F6B
S11315401948D84028E0164B586925E0144B1B680D
S113155000209B0720D513491022CB681A42FCD0E7
S11315600F4B1A6824231340042B01D00F4813E0B7
S113157000200F4B98470A4B9B681B041B0C5843D5
S11315800AE05023074AD35C00205B0704D5044BD0
S1131590D86801E08020000210BDC046F42300009A
S11315A0500000200008004000127A00006CDC02A9
S11315B0A91B000070B50C490B6A04788578407843
S11315C00122104080014026B34303432A40D20144
S11315D08020834313430322224012020348034022
S11315E013430B6270BDC04600080040FFFCFFFFC0
S11315F0F0B5DE4657464E464546E0B50100264B5B
S11316009B469B8A457800784242424191468878BD
S1131610CA7894460A7990464E7B0F7B8C7B8A6805
S11316201E494A6101214A4692009146042293438D
S11316304A46134342460A40D20090460822934346
S11316404246134362460A401201944610229343D1
S113165062461343084040012022934303430F4052
S1131660BF01402083433B430E40F6014030834397
S11316703343793805402D02094803402B43214068
S11316800903084803400B435A4693823CBC9046E6
S11316909946A246AB46F0BD000800405000002029
S11316A0FFF8FFFFFFEFFFFF10B5037A9B061B0C4B
S11316B042899205920D134318494B608379C2798C
S11316C0134342888488224313434278D20113434C
S11316D00B600378042B11D0202B0ED1037B9B06C7
S11316E0028A1343C28912040D490A4013430B4A68
S11316F0936011680B4B0B43136010BD037B9B0677
S1131700028A1343C289120405490A401343034A57
S11317109360136804210B431360EEE7500000202C
S11317200000FF0324040000082803D88000254B90
S11317301B589F46172044E0234A136A02210B4397
S1131740136200203DE0204A936902210B43936118
S1131750002036E01C4A138A02210B431382002026
S11317602FE0194A938A02210B439382002028E038
S113177016490B68022213430B60134B9A84190019
S11317800E32CB681A42FCD0104A91680E4BD962D3
S113179052689A6200229A8419001032CB681A4265
S11317A0FCD00A4B1B689BB2074A9384002008E0D4
S11317B0054944228B5C022003438B54002000E043
S11317C0002070471824000000080040500000204A
S11317D0F0B5CE46474680B58FB0C222D200504BFA
S11317E09A60504A53681E218B431C390B43536043
S11317F0032201AB1A7000244B4DE0B201A9A847A3
S11318000134252CF9D10AA80023037083708022A7
S113181012028260C3700122027103738373053262
S113182042704373414B98470520414B98473C49CC
S11318300222CB681A42FCD0394A938A80210B4396
S1131840938205AB00210022598099809A71DA7144
S11318503F3159813B3919705A70364B1B689B0EC6
S11318603F2B5BD005A80372B723DB000382072359
S113187003733833C381304B984704A8002545705F
S11318800126867005702D4B98470620284FB847CF
S11318902B4B984701AC029665702572657205233F
S11318A0237021000120274B994698470120264B9D
S11318B098469847666065700623237025726572A2
S11318C021000220C8470220C047267021000020C2
S11318D0154B984700201D4B98470720B8471049DF
S11318E0D022CB681340D02BFBD1194A00231372AA
S11318F053729372D37201A901224A604B700B7226
S11319004B7207330B7000200E4B984700200E4B90
S113191098470FB00CBC90469946F0BD203BA1E718
S113192000080040004000418D1B0000F11500003C
S11319302917000024608000A9160000B5150000D6
S11319405519000079190000311A0000011B00002C
S113195000040040064A936908210B439361012265
S1131960044B1A7019000B781342FCD17047C0461F
S113197000040040000C004070B5060004000D781F
S11319802D0205434B78002B02D08023DB021D433C
S11319904B7A002B02D080231B031D434868012887
S11319A010D9431E184234D1022830D90223002210
S11319B001325B009842FBD81202324314008023A8
S11319C05B031D430B7A002B02D080239B031D4332
S11319D0134A53785BB2002BFBDB124B9847124B34
S11319E01E700F4A53785BB2002BFBDB0C4B9C60E0
S11319F01A0053785BB2002BFBDB094A5368802141
S1131A0049020B401D435560084B984770BD0022A6
S1131A10D2E70402344380239B021D43D2E7C0462D
S1131A20000C004055140000080C00409514000000
S1131A3010B504000B4A53785BB2002BFBDB0A4B56
S1131A4098470A4B1C70074A53785BB2002BFBDBA8
S1131A50044A516880235B020B435360044B98474C
S1131A6010BDC046000C004055140000040C00409A
S1131A709514000070B504001A4A53785BB2002B29
S1131A80FBDB194B9847194B1C70164A53785BB211
S1131A90002BFBDB134E7068C004C00E144B984738
S1131AA00500124B1C707668F602F60F114B1C7081
S1131AB00C4A53785BB2002BFBDB0A4B9C68240274
S1131AC0240C0D4B9847002E07D1012C07D9210077
S1131AD028000A4B9847050001E00134E54028003E
S1131AE070BDC046000C004055140000040C0040BA
S1131AF021150000080C004095140000512000003E
S1131B0010B50400064B9847064B1C70064A5388D0
S1131B108021C9010B435380044B984710BDC04634
S1131B2055140000020C0040000C00409514000005
S1131B3010B504000F4B98470F4B1C700F4A538885
S1131B401B05180F53880E490B40538053880D49C9
S1131B500B40538011008022D2014B881342FCD1E8
S1131B6006494A8803020648024013434B80064B49
S1131B70984710BD55140000020C0040000C0040B2
S1131B80FFF0FFFFFFBFFFFF9514000010B50C78B6
S1131B9024020443024B9847A4B2024B5C8010BD5C
S1131BA0311B0000000C004010B50400064B9847A0
S1131BB0064B1C70064B5C882405240F054B984784
S1131BC02000054B984710BD55140000020C00403E
S1131BD0000C004095140000751A000030B5D3784D
S1131BE0002B35D11378802B29D01B068024640266
S1131BF0234354780225AC4306D19478002C20D199
S1131C008024A402234341605478013C012C1CD954
S1131C100D042D0CA024E4052C431C4384620D0CFC
S1131C20D02424062C431C438462D478002C22D173
S1131C305B031CD59378012B1ED0416117E0002370
S1131C40D7E7C024E4022343DDE70D4C2340DFE75C
S1131C5041600C04240CA023DB05234383620C0C99
S1131C60D0231B0623438362D378002B03D15378FC
S1131C70013B012B02D930BD8161F8E78160FAE7AD
S1131C80FFFFFBFF10B50A00C1090023002904D19E
S1131C904309DB0105498C4663441F24204001218C
S1131CA081401800024B984710BDC04600440041D3
S1131CB0DD1B00007047000010B5054B9847054B2D
S1131CC09847054B9847054B9847054B984710BDD7
S1131CD0D1170000C5140000B51C0000B51C00009D
S1131CE0B51C0000FEE70000F8B52A4A2A4B9A42C8
S1131CF011D01A00294B9A420DD2294A03339B1A58
S1131D009B0801339B000022234822498C588450AD
S1131D1004329A42FAD1234A234B9A420AD2D34339
S1131D2021495B1803218B4304339B18002102C211
S1131D309342FCD11D4AFF211D4B8B439360FD3917
S1131D4090235B001B4AD1501B4AD3780325AB4335
S1131D5002242343D370D3780C27BB430826334390
S1131D60D370164B987B30229043202210439873F3
S1131D70997BB943314399739A7BAA4322439A735B
S1131D800F4A536880210B4353600E4B98470E4B08
S1131D909847FEE774240000000000201000002093
S1131DA00400002010000020CC03002000ED00E01F
S1131DB00000000000700041005000410048004154
S1131DC0004000417D2300006D1F000070470000AB
S1131DD0F8B51A4B1A781A4B1B8DDBB219498B5480
S1131DE00A2B03D00132154B1A70F8BD0132D2B25E
S1131DF00D000020144B9847144E104F3A780132CE
S1131E00D2B2330000211B20114CA0473C7801348E
S1131E102200002128000F4DA847E1B230000E4BEC
S1131E2098473A780132FF213000A84700233B70DD
S1131E3000212020094B9847D7E7C04668000020BE
S1131E40001400428C020020D10400006C00002029
S1131E506D090000C5230000F503000079080000A7
S1131E60F0B591B02A4C0D23237000236370A37046
S1131E7001A901224A708B700A700D20254B9847E6
S1131E802378D9090022002904D15A09D201224910
S1131E908C4662441F2633400125290099409161F4
S1131EA002AC257000230393049323746374A57414
S1131EB0E57423752422A354183A002108A8174B6B
S1131EC09847174BA36180235B02E360154BA36221
S1131ED001235B42E362144B2363144B6363144F8B
S1131EE0220014493800144B98473C682000134BD7
S1131EF098470640B540124B1D603A68D369002BE1
S1131F00FCD1236802221343236011B0F0BDC04604
S1131F10C8030020FD14000000440041C523000054
S1131F20A0860100020030000300360003003700E1
S1131F308C030020001C0042B90A00006913000051
S1131F4000E100E010B5064C012206492000064BD2
S1131F5098473722A35C02210B43A35410BDC0460B
S1131F608C030020CD1D0000ED10000030B585B0BD
S1131F70264B9847264B9847264A136A20210B4341
S1131F801362254A254B5A80254B5622995C01241D
S1131F90214399543B215A5C0F208243022002437F
S1131FA05A5457201A5C22431A54585C0F22024098
S1131FB0202002435A54E12040021A4B98471A4BFE
S1131FC001221A70BFF35F8F62B6184B9847184B03
S1131FD098476846174B6A4632CB32C2198811803B
S1131FE09B7893700F21144B98473220134B9847DA
S1131FF0134B984700212020124B9847124B05227F
S113200000211B20114CA047FEE7C046B91C00006C
S1132010E91300000004004017400000000C0040D9
S113202000440041390300000C000020611E000040
S1132030451F00003C240000F503000029140000A3
S1132040F1070000790800006C0000206D09000011
S1132050002243088B4274D303098B425FD3030AE3
S11320608B4244D3030B8B4228D3030C8B420DD3F6
S1132070FF22090212BA030C8B4202D31212090284
S113208065D0030B8B4219D300E0090AC30B8B42C2
S113209001D3CB03C01A5241830B8B4201D38B0370
S11320A0C01A5241430B8B4201D34B03C01A524115
S11320B0030B8B4201D30B03C01A5241C30A8B4258
S11320C001D3CB02C01A5241830A8B4201D38B0243
S11320D0C01A5241430A8B4201D34B02C01A5241E7
S11320E0030A8B4201D30B02C01A5241CDD2C30959
S11320F08B4201D3CB01C01A524183098B4201D3D5
S11321008B01C01A524143098B4201D34B01C01ABF
S1132110524103098B4201D30B01C01A5241C30837
S11321208B4201D3CB00C01A524183088B4201D3A6
S11321308B00C01A524143088B4201D34B00C01A92
S11321405241411A00D20146524110467047FFE7FE
S113215001B5002000F006F802BDC0460029F7D002
S113216076E770477047C046002B11D1002A0FD183
S1132170002900D1002802D00021C943081C07B45B
S1132180024802A14018029003BDC046D9FFFFFFD8
S113219003B4684601B5029800F006F8019B9E4618
S11321A002B00CBC7047C046F0B557464E46454693
S11321B0DE46E0B5040083B00D00924699468B429A
S11321C02FD82CD04946504600F0AEF8290006001E
S11321D0200000F0A9F8331A9846203B9B4600D50E
S11321E074E053465A4693401F0053464246934078
S11321F01E00AF4229D826D05B46A41BBD41002B4C
S113220000DA79E0002200230092019301235A4668
S113221093400193012342469340009319E0824284
S1132220D0D900220023009201930C9B002B01D0F3
S11322301C605D600098019903B03CBC90469946CF
S1132240A246AB46F0BDA342D6D900220023009299
S113225001934346002BE8D0FB0772081A43464615
S11322607B080EE0AB4201D1A2420CD8A41A9D41D6
S1132270012024196D410021013E24184D41002EF6
S113228006D0AB42EED9013E24196D41002EF8D19F
S11322905B460098019900196941002B22DB2B0051
S11322A05A46D3402A004446E2401C005B461500CF
S11322B0002B2CDB26009E40330026004746BE4000
S11322C03200801A994100900191AEE742462023E2
S11322D09B1A5246DA40414613004A468A40170088
S11322E01F4382E7424620239B1A2A0046469A400F
S11322F02300F3401343D5E74246202300219B1AD1
S11323000022009101920122DA40019282E74246C2
S1132310202326009B1ADE402F00B44697406646D1
S11323203B003343C9E7C04610B5002903D100F090
S113233007F8203002E0081C00F002F810BDC04687
S11323401C2101231B04984201D3000C10391B0AE1
S1132350984201D3000A08391B09984201D30009A5
S1132360043902A2105C40187047C04604030202FC
S113237001010101000000000000000070B500260A
S11323800C4D0D4C641BA410A64209D1002600F08C
S11323905DF80A4D0A4C641BA410A64205D170BD19
S11323A0B300EB5898470136EEE7B300EB58984773
S11323B00136F2E758240000582400005824000095
S11323C05C24000003008218934200D17047197006
S11323D00133F9E700080042000C004200100042FB
S11323E00014004200180042001C00421B000B00B5
S11323F003000000321500002E1500002E15000009
S113240094150000941500004615000038150000CE
S11324104C1500008215000054170000341700000A
S113242034170000C01700004617000062170000B0
S11324303817000070170000B017000048656C6C76
S11324406F20576F726C64210D0A0000F8B5C04606
S1132450F8BC08BC9E467047DD000000F8B5C046D5
S10F2460F8BC08BC9E467047B5000000A4
S10B246C3CFDFF7F01000000AC
S1132474006CDC02401F00000800000001000000A2
S9031CE9F7
